{
  "_format": "hh-sol-artifact-1",
  "contractName": "Invoice",
  "sourceName": "contracts/Invoice.sol",
  "abi": [
    {
      "inputs": [
        {
          "internalType": "address",
          "name": "",
          "type": "address"
        },
        {
          "internalType": "uint256",
          "name": "",
          "type": "uint256"
        }
      ],
      "name": "History",
      "outputs": [
        {
          "internalType": "string",
          "name": "",
          "type": "string"
        }
      ],
      "stateMutability": "view",
      "type": "function"
    },
    {
      "inputs": [
        {
          "internalType": "string",
          "name": "",
          "type": "string"
        },
        {
          "internalType": "uint256",
          "name": "",
          "type": "uint256"
        }
      ],
      "name": "Payments",
      "outputs": [
        {
          "internalType": "address",
          "name": "receiver",
          "type": "address"
        },
        {
          "internalType": "uint256",
          "name": "amount",
          "type": "uint256"
        }
      ],
      "stateMutability": "view",
      "type": "function"
    },
    {
      "inputs": [
        {
          "internalType": "bool",
          "name": "onChain",
          "type": "bool"
        },
        {
          "internalType": "string",
          "name": "id",
          "type": "string"
        },
        {
          "internalType": "address",
          "name": "token",
          "type": "address"
        },
        {
          "internalType": "address",
          "name": "receiver",
          "type": "address"
        },
        {
          "internalType": "address",
          "name": "payment",
          "type": "address"
        },
        {
          "internalType": "address[]",
          "name": "receivers",
          "type": "address[]"
        },
        {
          "internalType": "uint256[]",
          "name": "amounts",
          "type": "uint256[]"
        }
      ],
      "name": "create",
      "outputs": [],
      "stateMutability": "nonpayable",
      "type": "function"
    },
    {
      "inputs": [
        {
          "internalType": "address",
          "name": "id",
          "type": "address"
        }
      ],
      "name": "getHistory",
      "outputs": [
        {
          "internalType": "string[]",
          "name": "",
          "type": "string[]"
        }
      ],
      "stateMutability": "view",
      "type": "function"
    },
    {
      "inputs": [
        {
          "internalType": "string",
          "name": "id",
          "type": "string"
        }
      ],
      "name": "getInvoice",
      "outputs": [
        {
          "components": [
            {
              "internalType": "address",
              "name": "token",
              "type": "address"
            },
            {
              "internalType": "uint256",
              "name": "timestamp",
              "type": "uint256"
            },
            {
              "internalType": "address",
              "name": "receiver",
              "type": "address"
            },
            {
              "internalType": "string",
              "name": "payments",
              "type": "string"
            }
          ],
          "internalType": "struct Invoice.Invoices",
          "name": "",
          "type": "tuple"
        }
      ],
      "stateMutability": "view",
      "type": "function"
    },
    {
      "inputs": [
        {
          "internalType": "string",
          "name": "id",
          "type": "string"
        }
      ],
      "name": "getPayments",
      "outputs": [
        {
          "components": [
            {
              "internalType": "address",
              "name": "receiver",
              "type": "address"
            },
            {
              "internalType": "uint256",
              "name": "amount",
              "type": "uint256"
            }
          ],
          "internalType": "struct Invoice.Payment[]",
          "name": "",
          "type": "tuple[]"
        }
      ],
      "stateMutability": "view",
      "type": "function"
    },
    {
      "inputs": [
        {
          "internalType": "string",
          "name": "",
          "type": "string"
        }
      ],
      "name": "mapInvoices",
      "outputs": [
        {
          "internalType": "address",
          "name": "token",
          "type": "address"
        },
        {
          "internalType": "uint256",
          "name": "timestamp",
          "type": "uint256"
        },
        {
          "internalType": "address",
          "name": "receiver",
          "type": "address"
        },
        {
          "internalType": "string",
          "name": "payments",
          "type": "string"
        }
      ],
      "stateMutability": "view",
      "type": "function"
    }
  ],
  "bytecode": "0x608060405234801561001057600080fd5b50611a86806100206000396000f3fe608060405234801561001057600080fd5b506004361061007d5760003560e01c8063803968111161005b5780638039681114610101578063ab7aa98014610131578063ce85866914610161578063f906a440146101925761007d565b80630778cfbd1461008257806356bd6f74146100b25780635f60ed5b146100e5575b600080fd5b61009c60048036038101906100979190610d9c565b6101c2565b6040516100a99190610f1d565b60405180910390f35b6100cc60048036038101906100c79190610d9c565b61029f565b6040516100dc9493929190610fdc565b60405180910390f35b6100ff60048036038101906100fa9190611243565b6103ad565b005b61011b60048036038101906101169190611339565b610827565b6040516101289190611472565b60405180910390f35b61014b60048036038101906101469190611494565b61093e565b60405161015891906114d4565b60405180910390f35b61017b600480360381019061017691906114f6565b6109f7565b604051610189929190611552565b60405180910390f35b6101ac60048036038101906101a79190610d9c565b610a6e565b6040516101b991906115de565b60405180910390f35b60606001826040516101d4919061163c565b9081526020016040518091039020805480602002602001604051908101604052809291908181526020016000905b8282101561029457838290600052602060002090600202016040518060400160405290816000820160009054906101000a900473ffffffffffffffffffffffffffffffffffffffff1673ffffffffffffffffffffffffffffffffffffffff1673ffffffffffffffffffffffffffffffffffffffff16815260200160018201548152505081526020019060010190610202565b505050509050919050565b6002818051602081018201805184825260208301602085012081835280955050505050506000915090508060000160009054906101000a900473ffffffffffffffffffffffffffffffffffffffff16908060010154908060020160009054906101000a900473ffffffffffffffffffffffffffffffffffffffff169080600301805461032a90611682565b80601f016020809104026020016040519081016040528092919081815260200182805461035690611682565b80156103a35780601f10610378576101008083540402835291602001916103a3565b820191906000526020600020905b81548152906001019060200180831161038657829003601f168201915b5050505050905084565b60005b8251811015610612578573ffffffffffffffffffffffffffffffffffffffff166323b872dd858584815181106103e9576103e86116b3565b5b6020026020010151858581518110610404576104036116b3565b5b60200260200101516040518463ffffffff1660e01b815260040161042a939291906116e2565b6020604051808303816000875af1158015610449573d6000803e3d6000fd5b505050506040513d601f19601f8201168201806040525081019061046d919061172e565b5087156105ff5760006040518060400160405280858481518110610494576104936116b3565b5b602002602001015173ffffffffffffffffffffffffffffffffffffffff1681526020018484815181106104ca576104c96116b3565b5b602002602001015181525090506001886040516104e7919061163c565b908152602001604051809103902081908060018154018082558091505060019003906000526020600020906002020160009091909190915060008201518160000160006101000a81548173ffffffffffffffffffffffffffffffffffffffff021916908373ffffffffffffffffffffffffffffffffffffffff160217905550602082015181600101555050600080858481518110610588576105876116b3565b5b602002602001015173ffffffffffffffffffffffffffffffffffffffff1673ffffffffffffffffffffffffffffffffffffffff168152602001908152602001600020889080600181540180825580915050600190039060005260206000200160009091909190915090816105fc9190611907565b50505b808061060a90611a08565b9150506103b0565b50861561081e576000808573ffffffffffffffffffffffffffffffffffffffff1673ffffffffffffffffffffffffffffffffffffffff168152602001908152602001600020869080600181540180825580915050600190039060005260206000200160009091909190915090816106899190611907565b506000808473ffffffffffffffffffffffffffffffffffffffff1673ffffffffffffffffffffffffffffffffffffffff168152602001908152602001600020869080600181540180825580915050600190039060005260206000200160009091909190915090816106fa9190611907565b50600060405180608001604052808773ffffffffffffffffffffffffffffffffffffffff1681526020014281526020018673ffffffffffffffffffffffffffffffffffffffff1681526020018881525090508060028860405161075d919061163c565b908152602001604051809103902060008201518160000160006101000a81548173ffffffffffffffffffffffffffffffffffffffff021916908373ffffffffffffffffffffffffffffffffffffffff1602179055506020820151816001015560408201518160020160006101000a81548173ffffffffffffffffffffffffffffffffffffffff021916908373ffffffffffffffffffffffffffffffffffffffff16021790555060608201518160030190816108189190611907565b50905050505b50505050505050565b60606000808373ffffffffffffffffffffffffffffffffffffffff1673ffffffffffffffffffffffffffffffffffffffff168152602001908152602001600020805480602002602001604051908101604052809291908181526020016000905b828210156109335783829060005260206000200180546108a690611682565b80601f01602080910402602001604051908101604052809291908181526020018280546108d290611682565b801561091f5780601f106108f45761010080835404028352916020019161091f565b820191906000526020600020905b81548152906001019060200180831161090257829003601f168201915b505050505081526020019060010190610887565b505050509050919050565b6000602052816000526040600020818154811061095a57600080fd5b9060005260206000200160009150915050805461097690611682565b80601f01602080910402602001604051908101604052809291908181526020018280546109a290611682565b80156109ef5780601f106109c4576101008083540402835291602001916109ef565b820191906000526020600020905b8154815290600101906020018083116109d257829003601f168201915b505050505081565b6001828051602081018201805184825260208301602085012081835280955050505050508181548110610a2957600080fd5b9060005260206000209060020201600091509150508060000160009054906101000a900473ffffffffffffffffffffffffffffffffffffffff16908060010154905082565b610a76610bee565b600282604051610a86919061163c565b90815260200160405180910390206040518060800160405290816000820160009054906101000a900473ffffffffffffffffffffffffffffffffffffffff1673ffffffffffffffffffffffffffffffffffffffff1673ffffffffffffffffffffffffffffffffffffffff168152602001600182015481526020016002820160009054906101000a900473ffffffffffffffffffffffffffffffffffffffff1673ffffffffffffffffffffffffffffffffffffffff1673ffffffffffffffffffffffffffffffffffffffff168152602001600382018054610b6590611682565b80601f0160208091040260200160405190810160405280929190818152602001828054610b9190611682565b8015610bde5780601f10610bb357610100808354040283529160200191610bde565b820191906000526020600020905b815481529060010190602001808311610bc157829003601f168201915b5050505050815250509050919050565b6040518060800160405280600073ffffffffffffffffffffffffffffffffffffffff16815260200160008152602001600073ffffffffffffffffffffffffffffffffffffffff168152602001606081525090565b6000604051905090565b600080fd5b600080fd5b600080fd5b600080fd5b6000601f19601f8301169050919050565b7f4e487b7100000000000000000000000000000000000000000000000000000000600052604160045260246000fd5b610ca982610c60565b810181811067ffffffffffffffff82111715610cc857610cc7610c71565b5b80604052505050565b6000610cdb610c42565b9050610ce78282610ca0565b919050565b600067ffffffffffffffff821115610d0757610d06610c71565b5b610d1082610c60565b9050602081019050919050565b82818337600083830152505050565b6000610d3f610d3a84610cec565b610cd1565b905082815260208101848484011115610d5b57610d5a610c5b565b5b610d66848285610d1d565b509392505050565b600082601f830112610d8357610d82610c56565b5b8135610d93848260208601610d2c565b91505092915050565b600060208284031215610db257610db1610c4c565b5b600082013567ffffffffffffffff811115610dd057610dcf610c51565b5b610ddc84828501610d6e565b91505092915050565b600081519050919050565b600082825260208201905092915050565b6000819050602082019050919050565b600073ffffffffffffffffffffffffffffffffffffffff82169050919050565b6000610e3c82610e11565b9050919050565b610e4c81610e31565b82525050565b6000819050919050565b610e6581610e52565b82525050565b604082016000820151610e816000850182610e43565b506020820151610e946020850182610e5c565b50505050565b6000610ea68383610e6b565b60408301905092915050565b6000602082019050919050565b6000610eca82610de5565b610ed48185610df0565b9350610edf83610e01565b8060005b83811015610f10578151610ef78882610e9a565b9750610f0283610eb2565b925050600181019050610ee3565b5085935050505092915050565b60006020820190508181036000830152610f378184610ebf565b905092915050565b610f4881610e31565b82525050565b610f5781610e52565b82525050565b600081519050919050565b600082825260208201905092915050565b60005b83811015610f97578082015181840152602081019050610f7c565b60008484015250505050565b6000610fae82610f5d565b610fb88185610f68565b9350610fc8818560208601610f79565b610fd181610c60565b840191505092915050565b6000608082019050610ff16000830187610f3f565b610ffe6020830186610f4e565b61100b6040830185610f3f565b818103606083015261101d8184610fa3565b905095945050505050565b60008115159050919050565b61103d81611028565b811461104857600080fd5b50565b60008135905061105a81611034565b92915050565b61106981610e31565b811461107457600080fd5b50565b60008135905061108681611060565b92915050565b600067ffffffffffffffff8211156110a7576110a6610c71565b5b602082029050602081019050919050565b600080fd5b60006110d06110cb8461108c565b610cd1565b905080838252602082019050602084028301858111156110f3576110f26110b8565b5b835b8181101561111c57806111088882611077565b8452602084019350506020810190506110f5565b5050509392505050565b600082601f83011261113b5761113a610c56565b5b813561114b8482602086016110bd565b91505092915050565b600067ffffffffffffffff82111561116f5761116e610c71565b5b602082029050602081019050919050565b61118981610e52565b811461119457600080fd5b50565b6000813590506111a681611180565b92915050565b60006111bf6111ba84611154565b610cd1565b905080838252602082019050602084028301858111156111e2576111e16110b8565b5b835b8181101561120b57806111f78882611197565b8452602084019350506020810190506111e4565b5050509392505050565b600082601f83011261122a57611229610c56565b5b813561123a8482602086016111ac565b91505092915050565b600080600080600080600060e0888a03121561126257611261610c4c565b5b60006112708a828b0161104b565b975050602088013567ffffffffffffffff81111561129157611290610c51565b5b61129d8a828b01610d6e565b96505060406112ae8a828b01611077565b95505060606112bf8a828b01611077565b94505060806112d08a828b01611077565b93505060a088013567ffffffffffffffff8111156112f1576112f0610c51565b5b6112fd8a828b01611126565b92505060c088013567ffffffffffffffff81111561131e5761131d610c51565b5b61132a8a828b01611215565b91505092959891949750929550565b60006020828403121561134f5761134e610c4c565b5b600061135d84828501611077565b91505092915050565b600081519050919050565b600082825260208201905092915050565b6000819050602082019050919050565b600082825260208201905092915050565b60006113ae82610f5d565b6113b88185611392565b93506113c8818560208601610f79565b6113d181610c60565b840191505092915050565b60006113e883836113a3565b905092915050565b6000602082019050919050565b600061140882611366565b6114128185611371565b93508360208202850161142485611382565b8060005b85811015611460578484038952815161144185826113dc565b945061144c836113f0565b925060208a01995050600181019050611428565b50829750879550505050505092915050565b6000602082019050818103600083015261148c81846113fd565b905092915050565b600080604083850312156114ab576114aa610c4c565b5b60006114b985828601611077565b92505060206114ca85828601611197565b9150509250929050565b600060208201905081810360008301526114ee8184610fa3565b905092915050565b6000806040838503121561150d5761150c610c4c565b5b600083013567ffffffffffffffff81111561152b5761152a610c51565b5b61153785828601610d6e565b925050602061154885828601611197565b9150509250929050565b60006040820190506115676000830185610f3f565b6115746020830184610f4e565b9392505050565b60006080830160008301516115936000860182610e43565b5060208301516115a66020860182610e5c565b5060408301516115b96040860182610e43565b50606083015184820360608601526115d182826113a3565b9150508091505092915050565b600060208201905081810360008301526115f8818461157b565b905092915050565b600081905092915050565b600061161682610f5d565b6116208185611600565b9350611630818560208601610f79565b80840191505092915050565b6000611648828461160b565b915081905092915050565b7f4e487b7100000000000000000000000000000000000000000000000000000000600052602260045260246000fd5b6000600282049050600182168061169a57607f821691505b6020821081036116ad576116ac611653565b5b50919050565b7f4e487b7100000000000000000000000000000000000000000000000000000000600052603260045260246000fd5b60006060820190506116f76000830186610f3f565b6117046020830185610f3f565b6117116040830184610f4e565b949350505050565b60008151905061172881611034565b92915050565b60006020828403121561174457611743610c4c565b5b600061175284828501611719565b91505092915050565b60008190508160005260206000209050919050565b60006020601f8301049050919050565b600082821b905092915050565b6000600883026117bd7fffffffffffffffffffffffffffffffffffffffffffffffffffffffffffffffff82611780565b6117c78683611780565b95508019841693508086168417925050509392505050565b6000819050919050565b60006118046117ff6117fa84610e52565b6117df565b610e52565b9050919050565b6000819050919050565b61181e836117e9565b61183261182a8261180b565b84845461178d565b825550505050565b600090565b61184761183a565b611852818484611815565b505050565b5b818110156118765761186b60008261183f565b600181019050611858565b5050565b601f8211156118bb5761188c8161175b565b61189584611770565b810160208510156118a4578190505b6118b86118b085611770565b830182611857565b50505b505050565b600082821c905092915050565b60006118de600019846008026118c0565b1980831691505092915050565b60006118f783836118cd565b9150826002028217905092915050565b61191082610f5d565b67ffffffffffffffff81111561192957611928610c71565b5b6119338254611682565b61193e82828561187a565b600060209050601f831160018114611971576000841561195f578287015190505b61196985826118eb565b8655506119d1565b601f19841661197f8661175b565b60005b828110156119a757848901518255600182019150602085019450602081019050611982565b868310156119c457848901516119c0601f8916826118cd565b8355505b6001600288020188555050505b505050505050565b7f4e487b7100000000000000000000000000000000000000000000000000000000600052601160045260246000fd5b6000611a1382610e52565b91507fffffffffffffffffffffffffffffffffffffffffffffffffffffffffffffffff8203611a4557611a446119d9565b5b60018201905091905056fea26469706673582212201aade0cc600575f12cd4a3d80c33f3ffe8fa06a93344ba28a4f24a28a51a9b4464736f6c63430008140033",
  "linkReferences": {},
  "deployedLinkReferences": {}
}