{
  "_format": "hh-sol-artifact-1",
  "contractName": "Invoice",
  "sourceName": "contracts/Invoice.sol",
  "abi": [
    {
      "inputs": [
        {
          "internalType": "bytes32",
          "name": "id",
          "type": "bytes32"
        },
        {
          "internalType": "uint256",
          "name": "index",
          "type": "uint256"
        }
      ],
      "name": "cancel",
      "outputs": [],
      "stateMutability": "nonpayable",
      "type": "function"
    },
    {
      "inputs": [
        {
          "internalType": "bytes32",
          "name": "id",
          "type": "bytes32"
        },
        {
          "internalType": "uint256",
          "name": "index",
          "type": "uint256"
        }
      ],
      "name": "confirm",
      "outputs": [],
      "stateMutability": "nonpayable",
      "type": "function"
    },
    {
      "inputs": [
        {
          "internalType": "bytes32",
          "name": "id",
          "type": "bytes32"
        },
        {
          "internalType": "uint256[]",
          "name": "dateTime",
          "type": "uint256[]"
        },
        {
          "internalType": "address[]",
          "name": "token",
          "type": "address[]"
        },
        {
          "internalType": "uint256[]",
          "name": "amount",
          "type": "uint256[]"
        },
        {
          "internalType": "address[]",
          "name": "payer",
          "type": "address[]"
        },
        {
          "internalType": "address[]",
          "name": "receiver",
          "type": "address[]"
        }
      ],
      "name": "createPayment",
      "outputs": [],
      "stateMutability": "nonpayable",
      "type": "function"
    },
    {
      "inputs": [
        {
          "internalType": "address",
          "name": "_address",
          "type": "address"
        }
      ],
      "name": "getHistory",
      "outputs": [
        {
          "internalType": "bytes32[]",
          "name": "",
          "type": "bytes32[]"
        }
      ],
      "stateMutability": "view",
      "type": "function"
    },
    {
      "inputs": [
        {
          "internalType": "bytes32",
          "name": "id",
          "type": "bytes32"
        },
        {
          "internalType": "uint256",
          "name": "index",
          "type": "uint256"
        }
      ],
      "name": "getPaymentBalance",
      "outputs": [
        {
          "internalType": "uint256",
          "name": "",
          "type": "uint256"
        }
      ],
      "stateMutability": "view",
      "type": "function"
    },
    {
      "inputs": [
        {
          "internalType": "bytes32",
          "name": "id",
          "type": "bytes32"
        }
      ],
      "name": "getPayments",
      "outputs": [
        {
          "components": [
            {
              "internalType": "uint256",
              "name": "dateTime",
              "type": "uint256"
            },
            {
              "internalType": "address",
              "name": "token",
              "type": "address"
            },
            {
              "internalType": "uint256",
              "name": "amount",
              "type": "uint256"
            },
            {
              "internalType": "address",
              "name": "payer",
              "type": "address"
            },
            {
              "internalType": "address",
              "name": "receiver",
              "type": "address"
            },
            {
              "internalType": "uint8",
              "name": "status",
              "type": "uint8"
            }
          ],
          "internalType": "struct Invoice.Payment[]",
          "name": "",
          "type": "tuple[]"
        }
      ],
      "stateMutability": "view",
      "type": "function"
    },
    {
      "inputs": [
        {
          "internalType": "address",
          "name": "_address",
          "type": "address"
        }
      ],
      "name": "isBlocked",
      "outputs": [
        {
          "internalType": "bool",
          "name": "",
          "type": "bool"
        }
      ],
      "stateMutability": "view",
      "type": "function"
    },
    {
      "inputs": [
        {
          "internalType": "bytes32",
          "name": "id",
          "type": "bytes32"
        },
        {
          "internalType": "uint256[]",
          "name": "index",
          "type": "uint256[]"
        }
      ],
      "name": "sendAllPayment",
      "outputs": [],
      "stateMutability": "nonpayable",
      "type": "function"
    },
    {
      "inputs": [
        {
          "internalType": "bytes32",
          "name": "id",
          "type": "bytes32"
        },
        {
          "internalType": "uint256",
          "name": "index",
          "type": "uint256"
        }
      ],
      "name": "sendPayment",
      "outputs": [],
      "stateMutability": "nonpayable",
      "type": "function"
    },
    {
      "inputs": [
        {
          "internalType": "bool",
          "name": "_block",
          "type": "bool"
        }
      ],
      "name": "setBlock",
      "outputs": [],
      "stateMutability": "nonpayable",
      "type": "function"
    }
  ],
  "bytecode": "0x608060405234801561001057600080fd5b506135c5806100206000396000f3fe608060405234801561001057600080fd5b506004361061009e5760003560e01c806381bcb4f71161006657806381bcb4f714610143578063b00838a914610173578063f2cb3d76146101a3578063f3ab94ab146101bf578063fbac3951146101db5761009e565b8063069455a0146100a35780633987581c146100bf5780634b92fe7d146100db5780636a0a2f2c146100f75780638039681114610113575b600080fd5b6100bd60048036038101906100b89190612386565b61020b565b005b6100d960048036038101906100d4919061251f565b610613565b005b6100f560048036038101906100f09190612386565b610a34565b005b610111600480360381019061010c919061262c565b610e01565b005b61012d600480360381019061012891906127bb565b6119f9565b60405161013a91906128a6565b60405180910390f35b61015d60048036038101906101589190612386565b611a90565b60405161016a91906128d7565b60405180910390f35b61018d600480360381019061018891906128f2565b611abf565b60405161019a9190612a83565b60405180910390f35b6101bd60048036038101906101b89190612386565b611c64565b005b6101d960048036038101906101d49190612add565b612258565b005b6101f560048036038101906101f091906127bb565b6122b1565b6040516102029190612b19565b60405180910390f35b600260016000848152602001908152602001600020828154811061023257610231612b34565b5b906000526020600020906005020160040160149054906101000a900460ff1660ff1610610294576040517f08c379a000000000000000000000000000000000000000000000000000000000815260040161028b90612be6565b60405180910390fd5b3373ffffffffffffffffffffffffffffffffffffffff166001600084815260200190815260200160002082815481106102d0576102cf612b34565b5b906000526020600020906005020160030160009054906101000a900473ffffffffffffffffffffffffffffffffffffffff1673ffffffffffffffffffffffffffffffffffffffff1614806103a557503373ffffffffffffffffffffffffffffffffffffffff1660016000848152602001908152602001600020828154811061035b5761035a612b34565b5b906000526020600020906005020160040160009054906101000a900473ffffffffffffffffffffffffffffffffffffffff1673ffffffffffffffffffffffffffffffffffffffff16145b6103e4576040517f08c379a00000000000000000000000000000000000000000000000000000000081526004016103db90612c78565b60405180910390fd5b6001806000848152602001908152602001600020828154811061040a57610409612b34565b5b906000526020600020906005020160040160149054906101000a900460ff1660ff16036105bf5760016000838152602001908152602001600020818154811061045657610455612b34565b5b906000526020600020906005020160010160009054906101000a900473ffffffffffffffffffffffffffffffffffffffff1673ffffffffffffffffffffffffffffffffffffffff1663a9059cbb6001600085815260200190815260200160002083815481106104c8576104c7612b34565b5b906000526020600020906005020160030160009054906101000a900473ffffffffffffffffffffffffffffffffffffffff16600360008681526020019081526020016000206000858152602001908152602001600020546040518363ffffffff1660e01b815260040161053c929190612ca7565b6020604051808303816000875af115801561055b573d6000803e3d6000fd5b505050506040513d601f19601f8201168201806040525081019061057f9190612ce5565b6105be576040517f08c379a00000000000000000000000000000000000000000000000000000000081526004016105b590612d84565b60405180910390fd5b5b60036001600084815260200190815260200160002082815481106105e6576105e5612b34565b5b906000526020600020906005020160040160146101000a81548160ff021916908360ff1602179055505050565b60005b8151811015610a2f57600060016000858152602001908152602001600020828154811061064657610645612b34565b5b906000526020600020906005020160040160149054906101000a900460ff1660ff16146106a8576040517f08c379a000000000000000000000000000000000000000000000000000000000815260040161069f90612e16565b60405180910390fd5b600160008481526020019081526020016000208282815181106106ce576106cd612b34565b5b6020026020010151815481106106e7576106e6612b34565b5b9060005260206000209060050201600201546001600085815260200190815260200160002083838151811061071f5761071e612b34565b5b60200260200101518154811061073857610737612b34565b5b906000526020600020906005020160010160009054906101000a900473ffffffffffffffffffffffffffffffffffffffff1673ffffffffffffffffffffffffffffffffffffffff166370a08231336040518263ffffffff1660e01b81526004016107a29190612e36565b602060405180830381865afa1580156107bf573d6000803e3d6000fd5b505050506040513d601f19601f820116820180604052508101906107e39190612e66565b11610823576040517f08c379a000000000000000000000000000000000000000000000000000000000815260040161081a90612edf565b60405180910390fd5b60016000848152602001908152602001600020818154811061084857610847612b34565b5b906000526020600020906005020160010160009054906101000a900473ffffffffffffffffffffffffffffffffffffffff1673ffffffffffffffffffffffffffffffffffffffff166323b872dd33306001600088815260200190815260200160002085815481106108bc576108bb612b34565b5b9060005260206000209060050201600201546040518463ffffffff1660e01b81526004016108ec93929190612eff565b6020604051808303816000875af115801561090b573d6000803e3d6000fd5b505050506040513d601f19601f8201168201806040525081019061092f9190612ce5565b61096e576040517f08c379a000000000000000000000000000000000000000000000000000000000815260040161096590612d84565b60405180910390fd5b60016000848152602001908152602001600020818154811061099357610992612b34565b5b90600052602060002090600502016002015460036000858152602001908152602001600020600083815260200190815260200160002081905550600180600085815260200190815260200160002082815481106109f3576109f2612b34565b5b906000526020600020906005020160040160146101000a81548160ff021916908360ff1602179055508080610a2790612f65565b915050610616565b505050565b6000600160008481526020019081526020016000208281548110610a5b57610a5a612b34565b5b906000526020600020906005020160040160149054906101000a900460ff1660ff1614610abd576040517f08c379a0000000000000000000000000000000000000000000000000000000008152600401610ab49061301f565b60405180910390fd5b600160008381526020019081526020016000208181548110610ae257610ae1612b34565b5b906000526020600020906005020160020154600160008481526020019081526020016000208281548110610b1957610b18612b34565b5b906000526020600020906005020160010160009054906101000a900473ffffffffffffffffffffffffffffffffffffffff1673ffffffffffffffffffffffffffffffffffffffff166370a08231336040518263ffffffff1660e01b8152600401610b839190612e36565b602060405180830381865afa158015610ba0573d6000803e3d6000fd5b505050506040513d601f19601f82011682018060405250810190610bc49190612e66565b11610c04576040517f08c379a0000000000000000000000000000000000000000000000000000000008152600401610bfb90612edf565b60405180910390fd5b600160008381526020019081526020016000208181548110610c2957610c28612b34565b5b906000526020600020906005020160010160009054906101000a900473ffffffffffffffffffffffffffffffffffffffff1673ffffffffffffffffffffffffffffffffffffffff166323b872dd3330600160008781526020019081526020016000208581548110610c9d57610c9c612b34565b5b9060005260206000209060050201600201546040518463ffffffff1660e01b8152600401610ccd93929190612eff565b6020604051808303816000875af1158015610cec573d6000803e3d6000fd5b505050506040513d601f19601f82011682018060405250810190610d109190612ce5565b610d4f576040517f08c379a0000000000000000000000000000000000000000000000000000000008152600401610d4690612d84565b60405180910390fd5b600160008381526020019081526020016000208181548110610d7457610d73612b34565b5b9060005260206000209060050201600201546003600084815260200190815260200160002060008381526020019081526020016000208190555060018060008481526020019081526020016000208281548110610dd457610dd3612b34565b5b906000526020600020906005020160040160146101000a81548160ff021916908360ff1602179055505050565b6000600160008d81526020019081526020016000208054905014610e5a576040517f08c379a0000000000000000000000000000000000000000000000000000000008152600401610e519061308b565b60405180910390fd5b878790508a8a9050148015610e7457508585905088889050145b8015610e8557508383905086869050145b8015610e9657508181905084849050145b8015610ea757508989905082829050145b610ee6576040517f08c379a0000000000000000000000000000000000000000000000000000000008152600401610edd906130f7565b60405180910390fd5b60005b828290508110156119eb576000878783818110610f0957610f08612b34565b5b9050602002013503610f50576040517f08c379a0000000000000000000000000000000000000000000000000000000008152600401610f4790613163565b60405180910390fd5b848482818110610f6357610f62612b34565b5b9050602002016020810190610f7891906127bb565b73ffffffffffffffffffffffffffffffffffffffff163373ffffffffffffffffffffffffffffffffffffffff16141580156110225750600080868684818110610fc457610fc3612b34565b5b9050602002016020810190610fd991906127bb565b73ffffffffffffffffffffffffffffffffffffffff1673ffffffffffffffffffffffffffffffffffffffff16815260200190815260200160002060009054906101000a900460ff165b15611062576040517f08c379a0000000000000000000000000000000000000000000000000000000008152600401611059906131f5565b60405180910390fd5b60006040518060c001604052808d8d8581811061108257611081612b34565b5b9050602002013581526020018b8b858181106110a1576110a0612b34565b5b90506020020160208101906110b691906127bb565b73ffffffffffffffffffffffffffffffffffffffff1681526020018989858181106110e4576110e3612b34565b5b90506020020135815260200187878581811061110357611102612b34565b5b905060200201602081019061111891906127bb565b73ffffffffffffffffffffffffffffffffffffffff16815260200185858581811061114657611145612b34565b5b905060200201602081019061115b91906127bb565b73ffffffffffffffffffffffffffffffffffffffff168152602001600060ff168152509050600160008e81526020019081526020016000208190806001815401808255809150506001900390600052602060002090600502016000909190919091506000820151816000015560208201518160010160006101000a81548173ffffffffffffffffffffffffffffffffffffffff021916908373ffffffffffffffffffffffffffffffffffffffff1602179055506040820151816002015560608201518160030160006101000a81548173ffffffffffffffffffffffffffffffffffffffff021916908373ffffffffffffffffffffffffffffffffffffffff16021790555060808201518160040160006101000a81548173ffffffffffffffffffffffffffffffffffffffff021916908373ffffffffffffffffffffffffffffffffffffffff16021790555060a08201518160040160146101000a81548160ff021916908360ff16021790555050508383838181106112dc576112db612b34565b5b90506020020160208101906112f191906127bb565b73ffffffffffffffffffffffffffffffffffffffff1686868481811061131a57611319612b34565b5b905060200201602081019061132f91906127bb565b73ffffffffffffffffffffffffffffffffffffffff160361157c5760006002600086868681811061136357611362612b34565b5b905060200201602081019061137891906127bb565b73ffffffffffffffffffffffffffffffffffffffff1673ffffffffffffffffffffffffffffffffffffffff1681526020019081526020016000208054905090506000810361145257600260008686868181106113d7576113d6612b34565b5b90506020020160208101906113ec91906127bb565b73ffffffffffffffffffffffffffffffffffffffff1673ffffffffffffffffffffffffffffffffffffffff1681526020019081526020016000208e9080600181540180825580915050600190039060005260206000200160009091909190915055611576565b8d6002600087878781811061146a57611469612b34565b5b905060200201602081019061147f91906127bb565b73ffffffffffffffffffffffffffffffffffffffff1673ffffffffffffffffffffffffffffffffffffffff1681526020019081526020016000206001836114c69190613215565b815481106114d7576114d6612b34565b5b90600052602060002001541461157557600260008686868181106114fe576114fd612b34565b5b905060200201602081019061151391906127bb565b73ffffffffffffffffffffffffffffffffffffffff1673ffffffffffffffffffffffffffffffffffffffff1681526020019081526020016000208e90806001815401808255809150506001900390600052602060002001600090919091909150555b5b506119d7565b60006002600088888681811061159557611594612b34565b5b90506020020160208101906115aa91906127bb565b73ffffffffffffffffffffffffffffffffffffffff1673ffffffffffffffffffffffffffffffffffffffff16815260200190815260200160002080549050905060008103611684576002600088888681811061160957611608612b34565b5b905060200201602081019061161e91906127bb565b73ffffffffffffffffffffffffffffffffffffffff1673ffffffffffffffffffffffffffffffffffffffff1681526020019081526020016000208e90806001815401808255809150506001900390600052602060002001600090919091909150556117a8565b8d6002600089898781811061169c5761169b612b34565b5b90506020020160208101906116b191906127bb565b73ffffffffffffffffffffffffffffffffffffffff1673ffffffffffffffffffffffffffffffffffffffff1681526020019081526020016000206001836116f89190613215565b8154811061170957611708612b34565b5b9060005260206000200154146117a757600260008888868181106117305761172f612b34565b5b905060200201602081019061174591906127bb565b73ffffffffffffffffffffffffffffffffffffffff1673ffffffffffffffffffffffffffffffffffffffff1681526020019081526020016000208e90806001815401808255809150506001900390600052602060002001600090919091909150555b5b6000600260008787878181106117c1576117c0612b34565b5b90506020020160208101906117d691906127bb565b73ffffffffffffffffffffffffffffffffffffffff1673ffffffffffffffffffffffffffffffffffffffff168152602001908152602001600020805490509050600081036118b0576002600087878781811061183557611834612b34565b5b905060200201602081019061184a91906127bb565b73ffffffffffffffffffffffffffffffffffffffff1673ffffffffffffffffffffffffffffffffffffffff1681526020019081526020016000208f90806001815401808255809150506001900390600052602060002001600090919091909150556119d4565b8e600260008888888181106118c8576118c7612b34565b5b90506020020160208101906118dd91906127bb565b73ffffffffffffffffffffffffffffffffffffffff1673ffffffffffffffffffffffffffffffffffffffff1681526020019081526020016000206001836119249190613215565b8154811061193557611934612b34565b5b9060005260206000200154146119d3576002600087878781811061195c5761195b612b34565b5b905060200201602081019061197191906127bb565b73ffffffffffffffffffffffffffffffffffffffff1673ffffffffffffffffffffffffffffffffffffffff1681526020019081526020016000208f90806001815401808255809150506001900390600052602060002001600090919091909150555b5b50505b5080806119e390612f65565b915050610ee9565b505050505050505050505050565b6060600260008373ffffffffffffffffffffffffffffffffffffffff1673ffffffffffffffffffffffffffffffffffffffff168152602001908152602001600020805480602002602001604051908101604052809291908181526020018280548015611a8457602002820191906000526020600020905b815481526020019060010190808311611a70575b50505050509050919050565b600060036000848152602001908152602001600020600083815260200190815260200160002054905092915050565b606060016000838152602001908152602001600020805480602002602001604051908101604052809291908181526020016000905b82821015611c5957838290600052602060002090600502016040518060c0016040529081600082015481526020016001820160009054906101000a900473ffffffffffffffffffffffffffffffffffffffff1673ffffffffffffffffffffffffffffffffffffffff1673ffffffffffffffffffffffffffffffffffffffff168152602001600282015481526020016003820160009054906101000a900473ffffffffffffffffffffffffffffffffffffffff1673ffffffffffffffffffffffffffffffffffffffff1673ffffffffffffffffffffffffffffffffffffffff1681526020016004820160009054906101000a900473ffffffffffffffffffffffffffffffffffffffff1673ffffffffffffffffffffffffffffffffffffffff1673ffffffffffffffffffffffffffffffffffffffff1681526020016004820160149054906101000a900460ff1660ff1660ff168152505081526020019060010190611af4565b505050509050919050565b6000600160008481526020019081526020016000208281548110611c8b57611c8a612b34565b5b906000526020600020906005020160040160149054906101000a900460ff1660ff1603611ced576040517f08c379a0000000000000000000000000000000000000000000000000000000008152600401611ce4906132bb565b60405180910390fd5b6002600160008481526020019081526020016000208281548110611d1457611d13612b34565b5b906000526020600020906005020160040160149054906101000a900460ff1660ff1603611d76576040517f08c379a0000000000000000000000000000000000000000000000000000000008152600401611d6d9061334d565b60405180910390fd5b6003600160008481526020019081526020016000208281548110611d9d57611d9c612b34565b5b906000526020600020906005020160040160149054906101000a900460ff1660ff1603611dff576040517f08c379a0000000000000000000000000000000000000000000000000000000008152600401611df6906133df565b60405180910390fd5b600160008381526020019081526020016000208181548110611e2457611e23612b34565b5b906000526020600020906005020160020154600360008481526020019081526020016000206000838152602001908152602001600020541015611e9c576040517f08c379a0000000000000000000000000000000000000000000000000000000008152600401611e9390613471565b60405180910390fd5b3373ffffffffffffffffffffffffffffffffffffffff16600160008481526020019081526020016000208281548110611ed857611ed7612b34565b5b906000526020600020906005020160030160009054906101000a900473ffffffffffffffffffffffffffffffffffffffff1673ffffffffffffffffffffffffffffffffffffffff161480611fad57503373ffffffffffffffffffffffffffffffffffffffff16600160008481526020019081526020016000208281548110611f6357611f62612b34565b5b906000526020600020906005020160040160009054906101000a900473ffffffffffffffffffffffffffffffffffffffff1673ffffffffffffffffffffffffffffffffffffffff16145b611fec576040517f08c379a0000000000000000000000000000000000000000000000000000000008152600401611fe390613503565b60405180910390fd5b4260016000848152602001908152602001600020828154811061201257612011612b34565b5b9060005260206000209060050201600001541115612065576040517f08c379a000000000000000000000000000000000000000000000000000000000815260040161205c9061356f565b60405180910390fd5b60016000838152602001908152602001600020818154811061208a57612089612b34565b5b906000526020600020906005020160010160009054906101000a900473ffffffffffffffffffffffffffffffffffffffff1673ffffffffffffffffffffffffffffffffffffffff1663a9059cbb6001600085815260200190815260200160002083815481106120fc576120fb612b34565b5b906000526020600020906005020160040160009054906101000a900473ffffffffffffffffffffffffffffffffffffffff1660016000868152602001908152602001600020848154811061215357612152612b34565b5b9060005260206000209060050201600201546040518363ffffffff1660e01b8152600401612182929190612ca7565b6020604051808303816000875af11580156121a1573d6000803e3d6000fd5b505050506040513d601f19601f820116820180604052508101906121c59190612ce5565b612204576040517f08c379a00000000000000000000000000000000000000000000000000000000081526004016121fb90612d84565b60405180910390fd5b600260016000848152602001908152602001600020828154811061222b5761222a612b34565b5b906000526020600020906005020160040160146101000a81548160ff021916908360ff1602179055505050565b806000803373ffffffffffffffffffffffffffffffffffffffff1673ffffffffffffffffffffffffffffffffffffffff16815260200190815260200160002060006101000a81548160ff02191690831515021790555050565b60008060008373ffffffffffffffffffffffffffffffffffffffff1673ffffffffffffffffffffffffffffffffffffffff16815260200190815260200160002060009054906101000a900460ff169050919050565b6000604051905090565b600080fd5b600080fd5b6000819050919050565b61232d8161231a565b811461233857600080fd5b50565b60008135905061234a81612324565b92915050565b6000819050919050565b61236381612350565b811461236e57600080fd5b50565b6000813590506123808161235a565b92915050565b6000806040838503121561239d5761239c612310565b5b60006123ab8582860161233b565b92505060206123bc85828601612371565b9150509250929050565b600080fd5b6000601f19601f8301169050919050565b7f4e487b7100000000000000000000000000000000000000000000000000000000600052604160045260246000fd5b612414826123cb565b810181811067ffffffffffffffff82111715612433576124326123dc565b5b80604052505050565b6000612446612306565b9050612452828261240b565b919050565b600067ffffffffffffffff821115612472576124716123dc565b5b602082029050602081019050919050565b600080fd5b600061249b61249684612457565b61243c565b905080838252602082019050602084028301858111156124be576124bd612483565b5b835b818110156124e757806124d38882612371565b8452602084019350506020810190506124c0565b5050509392505050565b600082601f830112612506576125056123c6565b5b8135612516848260208601612488565b91505092915050565b6000806040838503121561253657612535612310565b5b60006125448582860161233b565b925050602083013567ffffffffffffffff81111561256557612564612315565b5b612571858286016124f1565b9150509250929050565b600080fd5b60008083601f840112612596576125956123c6565b5b8235905067ffffffffffffffff8111156125b3576125b261257b565b5b6020830191508360208202830111156125cf576125ce612483565b5b9250929050565b60008083601f8401126125ec576125eb6123c6565b5b8235905067ffffffffffffffff8111156126095761260861257b565b5b60208301915083602082028301111561262557612624612483565b5b9250929050565b600080600080600080600080600080600060c08c8e03121561265157612650612310565b5b600061265f8e828f0161233b565b9b505060208c013567ffffffffffffffff8111156126805761267f612315565b5b61268c8e828f01612580565b9a509a505060408c013567ffffffffffffffff8111156126af576126ae612315565b5b6126bb8e828f016125d6565b985098505060608c013567ffffffffffffffff8111156126de576126dd612315565b5b6126ea8e828f01612580565b965096505060808c013567ffffffffffffffff81111561270d5761270c612315565b5b6127198e828f016125d6565b945094505060a08c013567ffffffffffffffff81111561273c5761273b612315565b5b6127488e828f016125d6565b92509250509295989b509295989b9093969950565b600073ffffffffffffffffffffffffffffffffffffffff82169050919050565b60006127888261275d565b9050919050565b6127988161277d565b81146127a357600080fd5b50565b6000813590506127b58161278f565b92915050565b6000602082840312156127d1576127d0612310565b5b60006127df848285016127a6565b91505092915050565b600081519050919050565b600082825260208201905092915050565b6000819050602082019050919050565b61281d8161231a565b82525050565b600061282f8383612814565b60208301905092915050565b6000602082019050919050565b6000612853826127e8565b61285d81856127f3565b935061286883612804565b8060005b838110156128995781516128808882612823565b975061288b8361283b565b92505060018101905061286c565b5085935050505092915050565b600060208201905081810360008301526128c08184612848565b905092915050565b6128d181612350565b82525050565b60006020820190506128ec60008301846128c8565b92915050565b60006020828403121561290857612907612310565b5b60006129168482850161233b565b91505092915050565b600081519050919050565b600082825260208201905092915050565b6000819050602082019050919050565b61295481612350565b82525050565b6129638161277d565b82525050565b600060ff82169050919050565b61297f81612969565b82525050565b60c08201600082015161299b600085018261294b565b5060208201516129ae602085018261295a565b5060408201516129c1604085018261294b565b5060608201516129d4606085018261295a565b5060808201516129e7608085018261295a565b5060a08201516129fa60a0850182612976565b50505050565b6000612a0c8383612985565b60c08301905092915050565b6000602082019050919050565b6000612a308261291f565b612a3a818561292a565b9350612a458361293b565b8060005b83811015612a76578151612a5d8882612a00565b9750612a6883612a18565b925050600181019050612a49565b5085935050505092915050565b60006020820190508181036000830152612a9d8184612a25565b905092915050565b60008115159050919050565b612aba81612aa5565b8114612ac557600080fd5b50565b600081359050612ad781612ab1565b92915050565b600060208284031215612af357612af2612310565b5b6000612b0184828501612ac8565b91505092915050565b612b1381612aa5565b82525050565b6000602082019050612b2e6000830184612b0a565b92915050565b7f4e487b7100000000000000000000000000000000000000000000000000000000600052603260045260246000fd5b600082825260208201905092915050565b7f4974206973206e6f7420706f737369626c6520746f2063616e63656c20636f6d60008201527f706c65746564207061796d656e74206f722063616e63656c65642e0000000000602082015250565b6000612bd0603b83612b63565b9150612bdb82612b74565b604082019050919050565b60006020820190508181036000830152612bff81612bc3565b9050919050565b7f4f6e6c79207061796572206f722072656365697665722063616e2063616e636560008201527f6c207061796d656e742e00000000000000000000000000000000000000000000602082015250565b6000612c62602a83612b63565b9150612c6d82612c06565b604082019050919050565b60006020820190508181036000830152612c9181612c55565b9050919050565b612ca18161277d565b82525050565b6000604082019050612cbc6000830185612c98565b612cc960208301846128c8565b9392505050565b600081519050612cdf81612ab1565b92915050565b600060208284031215612cfb57612cfa612310565b5b6000612d0984828501612cd0565b91505092915050565b7f546f6b656e207472616e736665722066726f6d2073656e646572206661696c6560008201527f642e000000000000000000000000000000000000000000000000000000000000602082015250565b6000612d6e602283612b63565b9150612d7982612d12565b604082019050919050565b60006020820190508181036000830152612d9d81612d61565b9050919050565b7f5061796d656e742068617320616c7265616479206265656e2070616964206f7260008201527f2063616e63656c65640000000000000000000000000000000000000000000000602082015250565b6000612e00602983612b63565b9150612e0b82612da4565b604082019050919050565b60006020820190508181036000830152612e2f81612df3565b9050919050565b6000602082019050612e4b6000830184612c98565b92915050565b600081519050612e608161235a565b92915050565b600060208284031215612e7c57612e7b612310565b5b6000612e8a84828501612e51565b91505092915050565b7f496e7375666669656e7420746f6b656e2062616c616e63652e00000000000000600082015250565b6000612ec9601983612b63565b9150612ed482612e93565b602082019050919050565b60006020820190508181036000830152612ef881612ebc565b9050919050565b6000606082019050612f146000830186612c98565b612f216020830185612c98565b612f2e60408301846128c8565b949350505050565b7f4e487b7100000000000000000000000000000000000000000000000000000000600052601160045260246000fd5b6000612f7082612350565b91507fffffffffffffffffffffffffffffffffffffffffffffffffffffffffffffffff8203612fa257612fa1612f36565b5b600182019050919050565b7f5061796d656e742068617320616c7265616479206265656e2070616964206f7260008201527f2063616e63656c65642e00000000000000000000000000000000000000000000602082015250565b6000613009602a83612b63565b915061301482612fad565b604082019050919050565b6000602082019050818103600083015261303881612ffc565b9050919050565b7f546869732069642068617320616c7265616479206265656e20757365642e0000600082015250565b6000613075601e83612b63565b91506130808261303f565b602082019050919050565b600060208201905081810360008301526130a481613068565b9050919050565b7f4576657279206172726179206e6565642062652073616d65206c656e6774682e600082015250565b60006130e1602083612b63565b91506130ec826130ab565b602082019050919050565b60006020820190508181036000830152613110816130d4565b9050919050565b7f54686520746f6b656e20616d6f756e742063616e6e6f74206265207a65726f2e600082015250565b600061314d602083612b63565b915061315882613117565b602082019050919050565b6000602082019050818103600083015261317c81613140565b9050919050565b7f54686973206163636f756e7420646f6573206e6f74206c657420616e796f6e6560008201527f2061736b20666f72207061796d656e74732e0000000000000000000000000000602082015250565b60006131df603283612b63565b91506131ea82613183565b604082019050919050565b6000602082019050818103600083015261320e816131d2565b9050919050565b600061322082612350565b915061322b83612350565b925082820390508181111561324357613242612f36565b5b92915050565b7f5061796d656e7420686173206e6f7420726563656976656420616e7920746f6b60008201527f656e73207965742e000000000000000000000000000000000000000000000000602082015250565b60006132a5602883612b63565b91506132b082613249565b604082019050919050565b600060208201905081810360008301526132d481613298565b9050919050565b7f54686973207061796d656e742068617320616c7265616479206265656e20636f60008201527f6e6669726d65642e000000000000000000000000000000000000000000000000602082015250565b6000613337602883612b63565b9150613342826132db565b604082019050919050565b600060208201905081810360008301526133668161332a565b9050919050565b7f54686973207061796d656e742068617320616c7265616479206265656e20636160008201527f6e63656c65642e00000000000000000000000000000000000000000000000000602082015250565b60006133c9602783612b63565b91506133d48261336d565b604082019050919050565b600060208201905081810360008301526133f8816133bc565b9050919050565b7f546865726520617265206e6f7420656e6f75676820746f6b656e7320666f722060008201527f7061796d656e742e000000000000000000000000000000000000000000000000602082015250565b600061345b602883612b63565b9150613466826133ff565b604082019050919050565b6000602082019050818103600083015261348a8161344e565b9050919050565b7f4f6e6c79207061796572206f722072656365697665722063616e20636f6e666960008201527f726d207061796d656e742e000000000000000000000000000000000000000000602082015250565b60006134ed602b83612b63565b91506134f882613491565b604082019050919050565b6000602082019050818103600083015261351c816134e0565b9050919050565b7f5061796d656e7420686173206e6f7420796574206265656e20756e6c6f636b2e600082015250565b6000613559602083612b63565b915061356482613523565b602082019050919050565b600060208201905081810360008301526135888161354c565b905091905056fea26469706673582212200f341b62b1d307224aea425fdfa05dde335396ecc703d1cae42ed8dc8ac0bd4164736f6c63430008140033",
  "linkReferences": {},
  "deployedLinkReferences": {}
}