{
  "_format": "hh-sol-artifact-1",
  "contractName": "Token",
  "sourceName": "contracts/Token.sol",
  "abi": [
    {
      "inputs": [],
      "stateMutability": "nonpayable",
      "type": "constructor"
    },
    {
      "inputs": [
        {
          "internalType": "address",
          "name": "spender",
          "type": "address"
        },
        {
          "internalType": "uint256",
          "name": "allowance",
          "type": "uint256"
        },
        {
          "internalType": "uint256",
          "name": "needed",
          "type": "uint256"
        }
      ],
      "name": "ERC20InsufficientAllowance",
      "type": "error"
    },
    {
      "inputs": [
        {
          "internalType": "address",
          "name": "sender",
          "type": "address"
        },
        {
          "internalType": "uint256",
          "name": "balance",
          "type": "uint256"
        },
        {
          "internalType": "uint256",
          "name": "needed",
          "type": "uint256"
        }
      ],
      "name": "ERC20InsufficientBalance",
      "type": "error"
    },
    {
      "inputs": [
        {
          "internalType": "address",
          "name": "approver",
          "type": "address"
        }
      ],
      "name": "ERC20InvalidApprover",
      "type": "error"
    },
    {
      "inputs": [
        {
          "internalType": "address",
          "name": "receiver",
          "type": "address"
        }
      ],
      "name": "ERC20InvalidReceiver",
      "type": "error"
    },
    {
      "inputs": [
        {
          "internalType": "address",
          "name": "sender",
          "type": "address"
        }
      ],
      "name": "ERC20InvalidSender",
      "type": "error"
    },
    {
      "inputs": [
        {
          "internalType": "address",
          "name": "spender",
          "type": "address"
        }
      ],
      "name": "ERC20InvalidSpender",
      "type": "error"
    },
    {
      "anonymous": false,
      "inputs": [
        {
          "indexed": true,
          "internalType": "address",
          "name": "owner",
          "type": "address"
        },
        {
          "indexed": true,
          "internalType": "address",
          "name": "spender",
          "type": "address"
        },
        {
          "indexed": false,
          "internalType": "uint256",
          "name": "value",
          "type": "uint256"
        }
      ],
      "name": "Approval",
      "type": "event"
    },
    {
      "anonymous": false,
      "inputs": [
        {
          "indexed": true,
          "internalType": "address",
          "name": "from",
          "type": "address"
        },
        {
          "indexed": true,
          "internalType": "address",
          "name": "to",
          "type": "address"
        },
        {
          "indexed": false,
          "internalType": "uint256",
          "name": "value",
          "type": "uint256"
        }
      ],
      "name": "Transfer",
      "type": "event"
    },
    {
      "inputs": [
        {
          "internalType": "address",
          "name": "owner",
          "type": "address"
        },
        {
          "internalType": "address",
          "name": "spender",
          "type": "address"
        }
      ],
      "name": "allowance",
      "outputs": [
        {
          "internalType": "uint256",
          "name": "",
          "type": "uint256"
        }
      ],
      "stateMutability": "view",
      "type": "function"
    },
    {
      "inputs": [
        {
          "internalType": "address",
          "name": "spender",
          "type": "address"
        },
        {
          "internalType": "uint256",
          "name": "value",
          "type": "uint256"
        }
      ],
      "name": "approve",
      "outputs": [
        {
          "internalType": "bool",
          "name": "",
          "type": "bool"
        }
      ],
      "stateMutability": "nonpayable",
      "type": "function"
    },
    {
      "inputs": [
        {
          "internalType": "address",
          "name": "account",
          "type": "address"
        }
      ],
      "name": "balanceOf",
      "outputs": [
        {
          "internalType": "uint256",
          "name": "",
          "type": "uint256"
        }
      ],
      "stateMutability": "view",
      "type": "function"
    },
    {
      "inputs": [],
      "name": "decimals",
      "outputs": [
        {
          "internalType": "uint8",
          "name": "",
          "type": "uint8"
        }
      ],
      "stateMutability": "view",
      "type": "function"
    },
    {
      "inputs": [
        {
          "internalType": "address",
          "name": "to",
          "type": "address"
        }
      ],
      "name": "mint",
      "outputs": [],
      "stateMutability": "nonpayable",
      "type": "function"
    },
    {
      "inputs": [],
      "name": "name",
      "outputs": [
        {
          "internalType": "string",
          "name": "",
          "type": "string"
        }
      ],
      "stateMutability": "view",
      "type": "function"
    },
    {
      "inputs": [],
      "name": "symbol",
      "outputs": [
        {
          "internalType": "string",
          "name": "",
          "type": "string"
        }
      ],
      "stateMutability": "view",
      "type": "function"
    },
    {
      "inputs": [],
      "name": "totalSupply",
      "outputs": [
        {
          "internalType": "uint256",
          "name": "",
          "type": "uint256"
        }
      ],
      "stateMutability": "view",
      "type": "function"
    },
    {
      "inputs": [
        {
          "internalType": "address",
          "name": "to",
          "type": "address"
        },
        {
          "internalType": "uint256",
          "name": "value",
          "type": "uint256"
        }
      ],
      "name": "transfer",
      "outputs": [
        {
          "internalType": "bool",
          "name": "",
          "type": "bool"
        }
      ],
      "stateMutability": "nonpayable",
      "type": "function"
    },
    {
      "inputs": [
        {
          "internalType": "address",
          "name": "from",
          "type": "address"
        },
        {
          "internalType": "address",
          "name": "to",
          "type": "address"
        },
        {
          "internalType": "uint256",
          "name": "value",
          "type": "uint256"
        }
      ],
      "name": "transferFrom",
      "outputs": [
        {
          "internalType": "bool",
          "name": "",
          "type": "bool"
        }
      ],
      "stateMutability": "nonpayable",
      "type": "function"
    }
  ],
  "bytecode": "0x60806040523480156200001157600080fd5b506040518060400160405280600581526020017f546f6b656e0000000000000000000000000000000000000000000000000000008152506040518060400160405280600381526020017f4d544b000000000000000000000000000000000000000000000000000000000081525081600390816200008f919062000324565b508060049081620000a1919062000324565b5050506200040b565b600081519050919050565b7f4e487b7100000000000000000000000000000000000000000000000000000000600052604160045260246000fd5b7f4e487b7100000000000000000000000000000000000000000000000000000000600052602260045260246000fd5b600060028204905060018216806200012c57607f821691505b602082108103620001425762000141620000e4565b5b50919050565b60008190508160005260206000209050919050565b60006020601f8301049050919050565b600082821b905092915050565b600060088302620001ac7fffffffffffffffffffffffffffffffffffffffffffffffffffffffffffffffff826200016d565b620001b886836200016d565b95508019841693508086168417925050509392505050565b6000819050919050565b6000819050919050565b600062000205620001ff620001f984620001d0565b620001da565b620001d0565b9050919050565b6000819050919050565b6200022183620001e4565b6200023962000230826200020c565b8484546200017a565b825550505050565b600090565b6200025062000241565b6200025d81848462000216565b505050565b5b8181101562000285576200027960008262000246565b60018101905062000263565b5050565b601f821115620002d4576200029e8162000148565b620002a9846200015d565b81016020851015620002b9578190505b620002d1620002c8856200015d565b83018262000262565b50505b505050565b600082821c905092915050565b6000620002f960001984600802620002d9565b1980831691505092915050565b6000620003148383620002e6565b9150826002028217905092915050565b6200032f82620000aa565b67ffffffffffffffff8111156200034b576200034a620000b5565b5b62000357825462000113565b6200036482828562000289565b600060209050601f8311600181146200039c576000841562000387578287015190505b62000393858262000306565b86555062000403565b601f198416620003ac8662000148565b60005b82811015620003d657848901518255600182019150602085019450602081019050620003af565b86831015620003f65784890151620003f2601f891682620002e6565b8355505b6001600288020188555050505b505050505050565b6110ec806200041b6000396000f3fe608060405234801561001057600080fd5b506004361061009e5760003560e01c80636a627842116100665780636a6278421461015d57806370a082311461017957806395d89b41146101a9578063a9059cbb146101c7578063dd62ed3e146101f75761009e565b806306fdde03146100a3578063095ea7b3146100c157806318160ddd146100f157806323b872dd1461010f578063313ce5671461013f575b600080fd5b6100ab610227565b6040516100b89190610b80565b60405180910390f35b6100db60048036038101906100d69190610c3b565b6102b9565b6040516100e89190610c96565b60405180910390f35b6100f96102dc565b6040516101069190610cc0565b60405180910390f35b61012960048036038101906101249190610cdb565b6102e6565b6040516101369190610c96565b60405180910390f35b610147610315565b6040516101549190610d4a565b60405180910390f35b61017760048036038101906101729190610d65565b61031e565b005b610193600480360381019061018e9190610d65565b61034c565b6040516101a09190610cc0565b60405180910390f35b6101b1610394565b6040516101be9190610b80565b60405180910390f35b6101e160048036038101906101dc9190610c3b565b610426565b6040516101ee9190610c96565b60405180910390f35b610211600480360381019061020c9190610d92565b610449565b60405161021e9190610cc0565b60405180910390f35b60606003805461023690610e01565b80601f016020809104026020016040519081016040528092919081815260200182805461026290610e01565b80156102af5780601f10610284576101008083540402835291602001916102af565b820191906000526020600020905b81548152906001019060200180831161029257829003601f168201915b5050505050905090565b6000806102c46104d0565b90506102d18185856104d8565b600191505092915050565b6000600254905090565b6000806102f16104d0565b90506102fe8582856104ea565b61030985858561057e565b60019150509392505050565b60006012905090565b6103498161032a610315565b600a6103369190610f94565b620f42406103449190610fdf565b610672565b50565b60008060008373ffffffffffffffffffffffffffffffffffffffff1673ffffffffffffffffffffffffffffffffffffffff168152602001908152602001600020549050919050565b6060600480546103a390610e01565b80601f01602080910402602001604051908101604052809291908181526020018280546103cf90610e01565b801561041c5780601f106103f15761010080835404028352916020019161041c565b820191906000526020600020905b8154815290600101906020018083116103ff57829003601f168201915b5050505050905090565b6000806104316104d0565b905061043e81858561057e565b600191505092915050565b6000600160008473ffffffffffffffffffffffffffffffffffffffff1673ffffffffffffffffffffffffffffffffffffffff16815260200190815260200160002060008373ffffffffffffffffffffffffffffffffffffffff1673ffffffffffffffffffffffffffffffffffffffff16815260200190815260200160002054905092915050565b600033905090565b6104e583838360016106f4565b505050565b60006104f68484610449565b90507fffffffffffffffffffffffffffffffffffffffffffffffffffffffffffffffff81146105785781811015610568578281836040517ffb8f41b200000000000000000000000000000000000000000000000000000000815260040161055f93929190611030565b60405180910390fd5b610577848484840360006106f4565b5b50505050565b600073ffffffffffffffffffffffffffffffffffffffff168373ffffffffffffffffffffffffffffffffffffffff16036105f05760006040517f96c6fd1e0000000000000000000000000000000000000000000000000000000081526004016105e79190611067565b60405180910390fd5b600073ffffffffffffffffffffffffffffffffffffffff168273ffffffffffffffffffffffffffffffffffffffff16036106625760006040517fec442f050000000000000000000000000000000000000000000000000000000081526004016106599190611067565b60405180910390fd5b61066d8383836108cb565b505050565b600073ffffffffffffffffffffffffffffffffffffffff168273ffffffffffffffffffffffffffffffffffffffff16036106e45760006040517fec442f050000000000000000000000000000000000000000000000000000000081526004016106db9190611067565b60405180910390fd5b6106f0600083836108cb565b5050565b600073ffffffffffffffffffffffffffffffffffffffff168473ffffffffffffffffffffffffffffffffffffffff16036107665760006040517fe602df0500000000000000000000000000000000000000000000000000000000815260040161075d9190611067565b60405180910390fd5b600073ffffffffffffffffffffffffffffffffffffffff168373ffffffffffffffffffffffffffffffffffffffff16036107d85760006040517f94280d620000000000000000000000000000000000000000000000000000000081526004016107cf9190611067565b60405180910390fd5b81600160008673ffffffffffffffffffffffffffffffffffffffff1673ffffffffffffffffffffffffffffffffffffffff16815260200190815260200160002060008573ffffffffffffffffffffffffffffffffffffffff1673ffffffffffffffffffffffffffffffffffffffff1681526020019081526020016000208190555080156108c5578273ffffffffffffffffffffffffffffffffffffffff168473ffffffffffffffffffffffffffffffffffffffff167f8c5be1e5ebec7d5bd14f71427d1e84f3dd0314c0f7b2291e5b200ac8c7c3b925846040516108bc9190610cc0565b60405180910390a35b50505050565b600073ffffffffffffffffffffffffffffffffffffffff168373ffffffffffffffffffffffffffffffffffffffff160361091d5780600260008282546109119190611082565b925050819055506109f0565b60008060008573ffffffffffffffffffffffffffffffffffffffff1673ffffffffffffffffffffffffffffffffffffffff168152602001908152602001600020549050818110156109a9578381836040517fe450d38c0000000000000000000000000000000000000000000000000000000081526004016109a093929190611030565b60405180910390fd5b8181036000808673ffffffffffffffffffffffffffffffffffffffff1673ffffffffffffffffffffffffffffffffffffffff16815260200190815260200160002081905550505b600073ffffffffffffffffffffffffffffffffffffffff168273ffffffffffffffffffffffffffffffffffffffff1603610a395780600260008282540392505081905550610a86565b806000808473ffffffffffffffffffffffffffffffffffffffff1673ffffffffffffffffffffffffffffffffffffffff168152602001908152602001600020600082825401925050819055505b8173ffffffffffffffffffffffffffffffffffffffff168373ffffffffffffffffffffffffffffffffffffffff167fddf252ad1be2c89b69c2b068fc378daa952ba7f163c4a11628f55a4df523b3ef83604051610ae39190610cc0565b60405180910390a3505050565b600081519050919050565b600082825260208201905092915050565b60005b83811015610b2a578082015181840152602081019050610b0f565b60008484015250505050565b6000601f19601f8301169050919050565b6000610b5282610af0565b610b5c8185610afb565b9350610b6c818560208601610b0c565b610b7581610b36565b840191505092915050565b60006020820190508181036000830152610b9a8184610b47565b905092915050565b600080fd5b600073ffffffffffffffffffffffffffffffffffffffff82169050919050565b6000610bd282610ba7565b9050919050565b610be281610bc7565b8114610bed57600080fd5b50565b600081359050610bff81610bd9565b92915050565b6000819050919050565b610c1881610c05565b8114610c2357600080fd5b50565b600081359050610c3581610c0f565b92915050565b60008060408385031215610c5257610c51610ba2565b5b6000610c6085828601610bf0565b9250506020610c7185828601610c26565b9150509250929050565b60008115159050919050565b610c9081610c7b565b82525050565b6000602082019050610cab6000830184610c87565b92915050565b610cba81610c05565b82525050565b6000602082019050610cd56000830184610cb1565b92915050565b600080600060608486031215610cf457610cf3610ba2565b5b6000610d0286828701610bf0565b9350506020610d1386828701610bf0565b9250506040610d2486828701610c26565b9150509250925092565b600060ff82169050919050565b610d4481610d2e565b82525050565b6000602082019050610d5f6000830184610d3b565b92915050565b600060208284031215610d7b57610d7a610ba2565b5b6000610d8984828501610bf0565b91505092915050565b60008060408385031215610da957610da8610ba2565b5b6000610db785828601610bf0565b9250506020610dc885828601610bf0565b9150509250929050565b7f4e487b7100000000000000000000000000000000000000000000000000000000600052602260045260246000fd5b60006002820490506001821680610e1957607f821691505b602082108103610e2c57610e2b610dd2565b5b50919050565b7f4e487b7100000000000000000000000000000000000000000000000000000000600052601160045260246000fd5b60008160011c9050919050565b6000808291508390505b6001851115610eb857808604811115610e9457610e93610e32565b5b6001851615610ea35780820291505b8081029050610eb185610e61565b9450610e78565b94509492505050565b600082610ed15760019050610f8d565b81610edf5760009050610f8d565b8160018114610ef55760028114610eff57610f2e565b6001915050610f8d565b60ff841115610f1157610f10610e32565b5b8360020a915084821115610f2857610f27610e32565b5b50610f8d565b5060208310610133831016604e8410600b8410161715610f635782820a905083811115610f5e57610f5d610e32565b5b610f8d565b610f708484846001610e6e565b92509050818404811115610f8757610f86610e32565b5b81810290505b9392505050565b6000610f9f82610c05565b9150610faa83610d2e565b9250610fd77fffffffffffffffffffffffffffffffffffffffffffffffffffffffffffffffff8484610ec1565b905092915050565b6000610fea82610c05565b9150610ff583610c05565b925082820261100381610c05565b9150828204841483151761101a57611019610e32565b5b5092915050565b61102a81610bc7565b82525050565b60006060820190506110456000830186611021565b6110526020830185610cb1565b61105f6040830184610cb1565b949350505050565b600060208201905061107c6000830184611021565b92915050565b600061108d82610c05565b915061109883610c05565b92508282019050808211156110b0576110af610e32565b5b9291505056fea264697066735822122068f36f425a12fa38b76982284d214bcc898a160ddd4b773a1cecb767a26f39ce64736f6c63430008140033",
  "linkReferences": {},
  "deployedLinkReferences": {}
}